{
    "_format": "hh-sol-artifact-1",
    "contractName": "Sports",
    "sourceName": "contracts/Sports.sol",
    "abi": [
        {
            "inputs": [
                {
                    "internalType": "string",
                    "name": "_name",
                    "type": "string"
                },
                {
                    "internalType": "string",
                    "name": "_symbol",
                    "type": "string"
                }
            ],
            "stateMutability": "nonpayable",
            "type": "constructor"
        },
        {
            "anonymous": false,
            "inputs": [
                {
                    "indexed": true,
                    "internalType": "address",
                    "name": "owner",
                    "type": "address"
                },
                {
                    "indexed": true,
                    "internalType": "address",
                    "name": "approved",
                    "type": "address"
                },
                {
                    "indexed": true,
                    "internalType": "uint256",
                    "name": "tokenId",
                    "type": "uint256"
                }
            ],
            "name": "Approval",
            "type": "event"
        },
        {
            "anonymous": false,
            "inputs": [
                {
                    "indexed": true,
                    "internalType": "address",
                    "name": "owner",
                    "type": "address"
                },
                {
                    "indexed": true,
                    "internalType": "address",
                    "name": "operator",
                    "type": "address"
                },
                {
                    "indexed": false,
                    "internalType": "bool",
                    "name": "approved",
                    "type": "bool"
                }
            ],
            "name": "ApprovalForAll",
            "type": "event"
        },
        {
            "anonymous": false,
            "inputs": [
                {
                    "indexed": true,
                    "internalType": "uint256",
                    "name": "occasionId",
                    "type": "uint256"
                }
            ],
            "name": "OccasionDeleted",
            "type": "event"
        },
        {
            "anonymous": false,
            "inputs": [
                {
                    "indexed": true,
                    "internalType": "address",
                    "name": "from",
                    "type": "address"
                },
                {
                    "indexed": true,
                    "internalType": "address",
                    "name": "to",
                    "type": "address"
                },
                {
                    "indexed": true,
                    "internalType": "uint256",
                    "name": "tokenId",
                    "type": "uint256"
                }
            ],
            "name": "Transfer",
            "type": "event"
        },
        {
            "inputs": [],
            "name": "MAX_TICKETS_PER_IP",
            "outputs": [
                {
                    "internalType": "uint256",
                    "name": "",
                    "type": "uint256"
                }
            ],
            "stateMutability": "view",
            "type": "function"
        },
        {
            "inputs": [
                {
                    "internalType": "address",
                    "name": "to",
                    "type": "address"
                },
                {
                    "internalType": "uint256",
                    "name": "tokenId",
                    "type": "uint256"
                }
            ],
            "name": "approve",
            "outputs": [],
            "stateMutability": "nonpayable",
            "type": "function"
        },
        {
            "inputs": [
                {
                    "internalType": "address",
                    "name": "owner",
                    "type": "address"
                }
            ],
            "name": "balanceOf",
            "outputs": [
                {
                    "internalType": "uint256",
                    "name": "",
                    "type": "uint256"
                }
            ],
            "stateMutability": "view",
            "type": "function"
        },
        {
            "inputs": [
                {
                    "internalType": "string",
                    "name": "_date",
                    "type": "string"
                }
            ],
            "name": "dateToTimestamp",
            "outputs": [
                {
                    "internalType": "uint256",
                    "name": "",
                    "type": "uint256"
                }
            ],
            "stateMutability": "view",
            "type": "function"
        },
        {
            "inputs": [
                {
                    "internalType": "uint256",
                    "name": "_id",
                    "type": "uint256"
                }
            ],
            "name": "deleteExpiredOccasion",
            "outputs": [],
            "stateMutability": "nonpayable",
            "type": "function"
        },
        {
            "inputs": [],
            "name": "getAllOccasions",
            "outputs": [
                {
                    "components": [
                        {
                            "internalType": "uint256",
                            "name": "id",
                            "type": "uint256"
                        },
                        {
                            "internalType": "string",
                            "name": "name",
                            "type": "string"
                        },
                        {
                            "internalType": "uint256",
                            "name": "cost",
                            "type": "uint256"
                        },
                        {
                            "internalType": "uint256",
                            "name": "tickets",
                            "type": "uint256"
                        },
                        {
                            "internalType": "uint256",
                            "name": "maxTickets",
                            "type": "uint256"
                        },
                        {
                            "internalType": "string",
                            "name": "date",
                            "type": "string"
                        },
                        {
                            "internalType": "string",
                            "name": "time",
                            "type": "string"
                        },
                        {
                            "internalType": "string",
                            "name": "location",
                            "type": "string"
                        },
                        {
                            "internalType": "bool",
                            "name": "isActive",
                            "type": "bool"
                        }
                    ],
                    "internalType": "struct Sports.Occasion[]",
                    "name": "",
                    "type": "tuple[]"
                }
            ],
            "stateMutability": "view",
            "type": "function"
        },
        {
            "inputs": [
                {
                    "internalType": "uint256",
                    "name": "tokenId",
                    "type": "uint256"
                }
            ],
            "name": "getApproved",
            "outputs": [
                {
                    "internalType": "address",
                    "name": "",
                    "type": "address"
                }
            ],
            "stateMutability": "view",
            "type": "function"
        },
        {
            "inputs": [
                {
                    "internalType": "uint256",
                    "name": "_id",
                    "type": "uint256"
                }
            ],
            "name": "getOccasion",
            "outputs": [
                {
                    "components": [
                        {
                            "internalType": "uint256",
                            "name": "id",
                            "type": "uint256"
                        },
                        {
                            "internalType": "string",
                            "name": "name",
                            "type": "string"
                        },
                        {
                            "internalType": "uint256",
                            "name": "cost",
                            "type": "uint256"
                        },
                        {
                            "internalType": "uint256",
                            "name": "tickets",
                            "type": "uint256"
                        },
                        {
                            "internalType": "uint256",
                            "name": "maxTickets",
                            "type": "uint256"
                        },
                        {
                            "internalType": "string",
                            "name": "date",
                            "type": "string"
                        },
                        {
                            "internalType": "string",
                            "name": "time",
                            "type": "string"
                        },
                        {
                            "internalType": "string",
                            "name": "location",
                            "type": "string"
                        },
                        {
                            "internalType": "bool",
                            "name": "isActive",
                            "type": "bool"
                        }
                    ],
                    "internalType": "struct Sports.Occasion",
                    "name": "",
                    "type": "tuple"
                }
            ],
            "stateMutability": "view",
            "type": "function"
        },
        {
            "inputs": [
                {
                    "internalType": "uint256",
                    "name": "_id",
                    "type": "uint256"
                }
            ],
            "name": "getSeatsTaken",
            "outputs": [
                {
                    "internalType": "uint256[]",
                    "name": "",
                    "type": "uint256[]"
                }
            ],
            "stateMutability": "view",
            "type": "function"
        },
        {
            "inputs": [
                {
                    "internalType": "uint256",
                    "name": "_id",
                    "type": "uint256"
                },
                {
                    "internalType": "string",
                    "name": "_ipAddress",
                    "type": "string"
                }
            ],
            "name": "getTicketsByIP",
            "outputs": [
                {
                    "internalType": "uint256",
                    "name": "",
                    "type": "uint256"
                }
            ],
            "stateMutability": "view",
            "type": "function"
        },
        {
            "inputs": [
                {
                    "internalType": "uint256",
                    "name": "",
                    "type": "uint256"
                },
                {
                    "internalType": "address",
                    "name": "",
                    "type": "address"
                }
            ],
            "name": "hasBought",
            "outputs": [
                {
                    "internalType": "bool",
                    "name": "",
                    "type": "bool"
                }
            ],
            "stateMutability": "view",
            "type": "function"
        },
        {
            "inputs": [
                {
                    "internalType": "uint256",
                    "name": "",
                    "type": "uint256"
                },
                {
                    "internalType": "bytes32",
                    "name": "",
                    "type": "bytes32"
                }
            ],
            "name": "ipTicketCount",
            "outputs": [
                {
                    "internalType": "uint256",
                    "name": "",
                    "type": "uint256"
                }
            ],
            "stateMutability": "view",
            "type": "function"
        },
        {
            "inputs": [
                {
                    "internalType": "address",
                    "name": "owner",
                    "type": "address"
                },
                {
                    "internalType": "address",
                    "name": "operator",
                    "type": "address"
                }
            ],
            "name": "isApprovedForAll",
            "outputs": [
                {
                    "internalType": "bool",
                    "name": "",
                    "type": "bool"
                }
            ],
            "stateMutability": "view",
            "type": "function"
        },
        {
            "inputs": [
                {
                    "internalType": "string",
                    "name": "_name",
                    "type": "string"
                },
                {
                    "internalType": "uint256",
                    "name": "_cost",
                    "type": "uint256"
                },
                {
                    "internalType": "uint256",
                    "name": "_maxTickets",
                    "type": "uint256"
                },
                {
                    "internalType": "string",
                    "name": "_date",
                    "type": "string"
                },
                {
                    "internalType": "string",
                    "name": "_time",
                    "type": "string"
                },
                {
                    "internalType": "string",
                    "name": "_location",
                    "type": "string"
                }
            ],
            "name": "list",
            "outputs": [],
            "stateMutability": "nonpayable",
            "type": "function"
        },
        {
            "inputs": [
                {
                    "internalType": "uint256",
                    "name": "_id",
                    "type": "uint256"
                },
                {
                    "internalType": "uint256",
                    "name": "_seat",
                    "type": "uint256"
                },
                {
                    "internalType": "string",
                    "name": "_ipAddress",
                    "type": "string"
                }
            ],
            "name": "mint",
            "outputs": [],
            "stateMutability": "payable",
            "type": "function"
        },
        {
            "inputs": [],
            "name": "name",
            "outputs": [
                {
                    "internalType": "string",
                    "name": "",
                    "type": "string"
                }
            ],
            "stateMutability": "view",
            "type": "function"
        },
        {
            "inputs": [],
            "name": "owner",
            "outputs": [
                {
                    "internalType": "address",
                    "name": "",
                    "type": "address"
                }
            ],
            "stateMutability": "view",
            "type": "function"
        },
        {
            "inputs": [
                {
                    "internalType": "uint256",
                    "name": "tokenId",
                    "type": "uint256"
                }
            ],
            "name": "ownerOf",
            "outputs": [
                {
                    "internalType": "address",
                    "name": "",
                    "type": "address"
                }
            ],
            "stateMutability": "view",
            "type": "function"
        },
        {
            "inputs": [
                {
                    "internalType": "address",
                    "name": "from",
                    "type": "address"
                },
                {
                    "internalType": "address",
                    "name": "to",
                    "type": "address"
                },
                {
                    "internalType": "uint256",
                    "name": "tokenId",
                    "type": "uint256"
                }
            ],
            "name": "safeTransferFrom",
            "outputs": [],
            "stateMutability": "nonpayable",
            "type": "function"
        },
        {
            "inputs": [
                {
                    "internalType": "address",
                    "name": "from",
                    "type": "address"
                },
                {
                    "internalType": "address",
                    "name": "to",
                    "type": "address"
                },
                {
                    "internalType": "uint256",
                    "name": "tokenId",
                    "type": "uint256"
                },
                {
                    "internalType": "bytes",
                    "name": "data",
                    "type": "bytes"
                }
            ],
            "name": "safeTransferFrom",
            "outputs": [],
            "stateMutability": "nonpayable",
            "type": "function"
        },
        {
            "inputs": [
                {
                    "internalType": "uint256",
                    "name": "",
                    "type": "uint256"
                },
                {
                    "internalType": "uint256",
                    "name": "",
                    "type": "uint256"
                }
            ],
            "name": "seatTaken",
            "outputs": [
                {
                    "internalType": "address",
                    "name": "",
                    "type": "address"
                }
            ],
            "stateMutability": "view",
            "type": "function"
        },
        {
            "inputs": [
                {
                    "internalType": "address",
                    "name": "operator",
                    "type": "address"
                },
                {
                    "internalType": "bool",
                    "name": "approved",
                    "type": "bool"
                }
            ],
            "name": "setApprovalForAll",
            "outputs": [],
            "stateMutability": "nonpayable",
            "type": "function"
        },
        {
            "inputs": [
                {
                    "internalType": "bytes4",
                    "name": "interfaceId",
                    "type": "bytes4"
                }
            ],
            "name": "supportsInterface",
            "outputs": [
                {
                    "internalType": "bool",
                    "name": "",
                    "type": "bool"
                }
            ],
            "stateMutability": "view",
            "type": "function"
        },
        {
            "inputs": [],
            "name": "symbol",
            "outputs": [
                {
                    "internalType": "string",
                    "name": "",
                    "type": "string"
                }
            ],
            "stateMutability": "view",
            "type": "function"
        },
        {
            "inputs": [
                {
                    "internalType": "uint256",
                    "name": "_id",
                    "type": "uint256"
                }
            ],
            "name": "toggleOccasionStatus",
            "outputs": [],
            "stateMutability": "nonpayable",
            "type": "function"
        },
        {
            "inputs": [
                {
                    "internalType": "uint256",
                    "name": "tokenId",
                    "type": "uint256"
                }
            ],
            "name": "tokenURI",
            "outputs": [
                {
                    "internalType": "string",
                    "name": "",
                    "type": "string"
                }
            ],
            "stateMutability": "view",
            "type": "function"
        },
        {
            "inputs": [],
            "name": "totalOccasions",
            "outputs": [
                {
                    "internalType": "uint256",
                    "name": "",
                    "type": "uint256"
                }
            ],
            "stateMutability": "view",
            "type": "function"
        },
        {
            "inputs": [],
            "name": "totalSupply",
            "outputs": [
                {
                    "internalType": "uint256",
                    "name": "",
                    "type": "uint256"
                }
            ],
            "stateMutability": "view",
            "type": "function"
        },
        {
            "inputs": [
                {
                    "internalType": "address",
                    "name": "from",
                    "type": "address"
                },
                {
                    "internalType": "address",
                    "name": "to",
                    "type": "address"
                },
                {
                    "internalType": "uint256",
                    "name": "tokenId",
                    "type": "uint256"
                }
            ],
            "name": "transferFrom",
            "outputs": [],
            "stateMutability": "nonpayable",
            "type": "function"
        },
        {
            "inputs": [],
            "name": "withdraw",
            "outputs": [],
            "stateMutability": "nonpayable",
            "type": "function"
        }
    ],
    "bytecode": "0x60806040523480156200001157600080fd5b5060405162005271380380620052718339818101604052810190620000379190620001e4565b8181816000908051906020019062000051929190620000b6565b5080600190805190602001906200006a929190620000b6565b50505033600660006101000a81548173ffffffffffffffffffffffffffffffffffffffff021916908373ffffffffffffffffffffffffffffffffffffffff1602179055505050620003ed565b828054620000c490620002fe565b90600052602060002090601f016020900481019282620000e8576000855562000134565b82601f106200010357805160ff191683800117855562000134565b8280016001018555821562000134579182015b828111156200013357825182559160200191906001019062000116565b5b50905062000143919062000147565b5090565b5b808211156200016257600081600090555060010162000148565b5090565b60006200017d620001778462000292565b62000269565b9050828152602081018484840111156200019c576200019b620003cd565b5b620001a9848285620002c8565b509392505050565b600082601f830112620001c957620001c8620003c8565b5b8151620001db84826020860162000166565b91505092915050565b60008060408385031215620001fe57620001fd620003d7565b5b600083015167ffffffffffffffff8111156200021f576200021e620003d2565b5b6200022d85828601620001b1565b925050602083015167ffffffffffffffff811115620002515762000250620003d2565b5b6200025f85828601620001b1565b9150509250929050565b60006200027562000288565b905062000283828262000334565b919050565b6000604051905090565b600067ffffffffffffffff821115620002b057620002af62000399565b5b620002bb82620003dc565b9050602081019050919050565b60005b83811015620002e8578082015181840152602081019050620002cb565b83811115620002f8576000848401525b50505050565b600060028204905060018216806200031757607f821691505b602082108114156200032e576200032d6200036a565b5b50919050565b6200033f82620003dc565b810181811067ffffffffffffffff8211171562000361576200036062000399565b5b80604052505050565b7f4e487b7100000000000000000000000000000000000000000000000000000000600052602260045260246000fd5b7f4e487b7100000000000000000000000000000000000000000000000000000000600052604160045260246000fd5b600080fd5b600080fd5b600080fd5b600080fd5b6000601f19601f8301169050919050565b614e7480620003fd6000396000f3fe6080604052600436106101cd5760003560e01c80636352211e116100f75780639a382f0f11610095578063b88d4fde11610064578063b88d4fde146106d4578063c6e64e53146106fd578063c87b56dd14610719578063e985e9c514610756576101cd565b80639a382f0f146106085780639cb04aef14610631578063a22cb4651461066e578063af296da114610697576101cd565b80638da5cb5b116100d15780638da5cb5b1461055e578063953865c11461058957806395d89b41146105b4578063978450f1146105df576101cd565b80636352211e146104a757806370a08231146104e457806374bc865614610521576101cd565b806318160ddd1161016f5780632eb2c0601161013e5780632eb2c060146104135780633ccfd60b1461043c57806342842e0e14610453578063484cc81f1461047c576101cd565b806318160ddd146103575780631be24dee1461038257806323b872dd146103ad5780632df853ea146103d6576101cd565b8063081812fc116101ab578063081812fc14610277578063095ea7b3146102b45780630ef7ec74146102dd5780631349634b1461031a576101cd565b806301ffc9a7146101d257806302ea64651461020f57806306fdde031461024c575b600080fd5b3480156101de57600080fd5b506101f960048036038101906101f49190613628565b610793565b604051610206919061417a565b60405180910390f35b34801561021b57600080fd5b5061023660048036038101906102319190613835565b610875565b6040516102439190614499565b60405180910390f35b34801561025857600080fd5b5061026161089a565b60405161026e9190614195565b60405180910390f35b34801561028357600080fd5b5061029e600480360381019061029991906137c8565b61092c565b6040516102ab91906140cf565b60405180910390f35b3480156102c057600080fd5b506102db60048036038101906102d691906135e8565b610972565b005b3480156102e957600080fd5b5061030460048036038101906102ff91906137c8565b610a8a565b6040516103119190614158565b60405180910390f35b34801561032657600080fd5b50610341600480360381019061033c9190613875565b610b3a565b60405161034e9190614499565b60405180910390f35b34801561036357600080fd5b5061036c610b94565b6040516103799190614499565b60405180910390f35b34801561038e57600080fd5b50610397610b9a565b6040516103a49190614499565b60405180910390f35b3480156103b957600080fd5b506103d460048036038101906103cf91906134d2565b610b9f565b005b3480156103e257600080fd5b506103fd60048036038101906103f89190613682565b610bff565b60405161040a9190614499565b60405180910390f35b34801561041f57600080fd5b5061043a600480360381019061043591906137c8565b610c61565b005b34801561044857600080fd5b506104516110e8565b005b34801561045f57600080fd5b5061047a600480360381019061047591906134d2565b611213565b005b34801561048857600080fd5b50610491611233565b60405161049e9190614136565b60405180910390f35b3480156104b357600080fd5b506104ce60048036038101906104c991906137c8565b61158e565b6040516104db91906140cf565b60405180910390f35b3480156104f057600080fd5b5061050b60048036038101906105069190613465565b611615565b6040516105189190614499565b60405180910390f35b34801561052d57600080fd5b50610548600480360381019061054391906137c8565b6116cd565b6040516105559190614477565b60405180910390f35b34801561056a57600080fd5b506105736119cb565b60405161058091906140cf565b60405180910390f35b34801561059557600080fd5b5061059e6119f1565b6040516105ab9190614499565b60405180910390f35b3480156105c057600080fd5b506105c96119f7565b6040516105d69190614195565b60405180910390f35b3480156105eb57600080fd5b50610606600480360381019061060191906137c8565b611a89565b005b34801561061457600080fd5b5061062f600480360381019061062a91906136cb565b611b7d565b005b34801561063d57600080fd5b50610658600480360381019061065391906137f5565b611d11565b604051610665919061417a565b60405180910390f35b34801561067a57600080fd5b50610695600480360381019061069091906135a8565b611d40565b005b3480156106a357600080fd5b506106be60048036038101906106b991906138d1565b611d56565b6040516106cb91906140cf565b60405180910390f35b3480156106e057600080fd5b506106fb60048036038101906106f69190613525565b611d98565b005b61071760048036038101906107129190613911565b611dfa565b005b34801561072557600080fd5b50610740600480360381019061073b91906137c8565b6122ce565b60405161074d9190614195565b60405180910390f35b34801561076257600080fd5b5061077d60048036038101906107789190613492565b612336565b60405161078a919061417a565b60405180910390f35b60007f80ac58cd000000000000000000000000000000000000000000000000000000007bffffffffffffffffffffffffffffffffffffffffffffffffffffffff1916827bffffffffffffffffffffffffffffffffffffffffffffffffffffffff1916148061085e57507f5b5e139f000000000000000000000000000000000000000000000000000000007bffffffffffffffffffffffffffffffffffffffffffffffffffffffff1916827bffffffffffffffffffffffffffffffffffffffffffffffffffffffff1916145b8061086e575061086d826123ca565b5b9050919050565b600d602052816000526040600020602052806000526040600020600091509150505481565b6060600080546108a990614756565b80601f01602080910402602001604051908101604052809291908181526020018280546108d590614756565b80156109225780601f106108f757610100808354040283529160200191610922565b820191906000526020600020905b81548152906001019060200180831161090557829003601f168201915b5050505050905090565b600061093782612434565b6004600083815260200190815260200160002060009054906101000a900473ffffffffffffffffffffffffffffffffffffffff169050919050565b600061097d8261158e565b90508073ffffffffffffffffffffffffffffffffffffffff168373ffffffffffffffffffffffffffffffffffffffff1614156109ee576040517f08c379a00000000000000000000000000000000000000000000000000000000081526004016109e5906143b7565b60405180910390fd5b8073ffffffffffffffffffffffffffffffffffffffff16610a0d61247f565b73ffffffffffffffffffffffffffffffffffffffff161480610a3c5750610a3b81610a3661247f565b612336565b5b610a7b576040517f08c379a0000000000000000000000000000000000000000000000000000000008152600401610a72906143f7565b60405180910390fd5b610a858383612487565b505050565b6060600754821115610ad1576040517f08c379a0000000000000000000000000000000000000000000000000000000008152600401610ac890614417565b60405180910390fd5b600c6000838152602001908152602001600020805480602002602001604051908101604052809291908181526020018280548015610b2e57602002820191906000526020600020905b815481526020019060010190808311610b1a575b50505050509050919050565b60008082604051602001610b4e919061407f565b604051602081830303815290604052805190602001209050600d600085815260200190815260200160002060008281526020019081526020016000205491505092915050565b60085481565b600581565b610bb0610baa61247f565b82612540565b610bef576040517f08c379a0000000000000000000000000000000000000000000000000000000008152600401610be6906141d7565b60405180910390fd5b610bfa8383836125d5565b505050565b600080829050600681511015610c4a576040517f08c379a0000000000000000000000000000000000000000000000000000000008152600401610c41906141b7565b60405180910390fd5b6201518042610c59919061460c565b915050919050565b600660009054906101000a900473ffffffffffffffffffffffffffffffffffffffff1673ffffffffffffffffffffffffffffffffffffffff163373ffffffffffffffffffffffffffffffffffffffff1614610cbb57600080fd5b600081118015610ccd57506007548111155b610d0c576040517f08c379a0000000000000000000000000000000000000000000000000000000008152600401610d0390614377565b60405180910390fd5b6000600960008381526020019081526020016000206040518061012001604052908160008201548152602001600182018054610d4790614756565b80601f0160208091040260200160405190810160405280929190818152602001828054610d7390614756565b8015610dc05780601f10610d9557610100808354040283529160200191610dc0565b820191906000526020600020905b815481529060010190602001808311610da357829003601f168201915b50505050508152602001600282015481526020016003820154815260200160048201548152602001600582018054610df790614756565b80601f0160208091040260200160405190810160405280929190818152602001828054610e2390614756565b8015610e705780601f10610e4557610100808354040283529160200191610e70565b820191906000526020600020905b815481529060010190602001808311610e5357829003601f168201915b50505050508152602001600682018054610e8990614756565b80601f0160208091040260200160405190810160405280929190818152602001828054610eb590614756565b8015610f025780601f10610ed757610100808354040283529160200191610f02565b820191906000526020600020905b815481529060010190602001808311610ee557829003601f168201915b50505050508152602001600782018054610f1b90614756565b80601f0160208091040260200160405190810160405280929190818152602001828054610f4790614756565b8015610f945780601f10610f6957610100808354040283529160200191610f94565b820191906000526020600020905b815481529060010190602001808311610f7757829003601f168201915b505050505081526020016008820160009054906101000a900460ff16151515158152505090506000610fc98260a00151610bff565b905080421161100d576040517f08c379a0000000000000000000000000000000000000000000000000000000008152600401611004906143d7565b60405180910390fd5b6009600084815260200190815260200160002060008082016000905560018201600061103991906131b5565b60028201600090556003820160009055600482016000905560058201600061106191906131b5565b60068201600061107191906131b5565b60078201600061108191906131b5565b6008820160006101000a81549060ff02191690555050600c600084815260200190815260200160002060006110b691906131f5565b827f3aff0acc6b2affceff0881b1ed0072861fe5e90e661726ef366e12292348161c60405160405180910390a2505050565b600660009054906101000a900473ffffffffffffffffffffffffffffffffffffffff1673ffffffffffffffffffffffffffffffffffffffff163373ffffffffffffffffffffffffffffffffffffffff161461114257600080fd5b6000600660009054906101000a900473ffffffffffffffffffffffffffffffffffffffff1673ffffffffffffffffffffffffffffffffffffffff164760405161118a906140ba565b60006040518083038185875af1925050503d80600081146111c7576040519150601f19603f3d011682016040523d82523d6000602084013e6111cc565b606091505b5050905080611210576040517f08c379a000000000000000000000000000000000000000000000000000000000815260040161120790614437565b60405180910390fd5b50565b61122e83838360405180602001604052806000815250611d98565b505050565b6060600060075467ffffffffffffffff811115611253576112526148be565b5b60405190808252806020026020018201604052801561128c57816020015b611279613216565b8152602001906001900390816112715790505b5090506000600190505b6007548111611586576009600082815260200190815260200160002060405180610120016040529081600082015481526020016001820180546112d890614756565b80601f016020809104026020016040519081016040528092919081815260200182805461130490614756565b80156113515780601f1061132657610100808354040283529160200191611351565b820191906000526020600020905b81548152906001019060200180831161133457829003601f168201915b5050505050815260200160028201548152602001600382015481526020016004820154815260200160058201805461138890614756565b80601f01602080910402602001604051908101604052809291908181526020018280546113b490614756565b80156114015780601f106113d657610100808354040283529160200191611401565b820191906000526020600020905b8154815290600101906020018083116113e457829003601f168201915b5050505050815260200160068201805461141a90614756565b80601f016020809104026020016040519081016040528092919081815260200182805461144690614756565b80156114935780601f1061146857610100808354040283529160200191611493565b820191906000526020600020905b81548152906001019060200180831161147657829003601f168201915b505050505081526020016007820180546114ac90614756565b80601f01602080910402602001604051908101604052809291908181526020018280546114d890614756565b80156115255780601f106114fa57610100808354040283529160200191611525565b820191906000526020600020905b81548152906001019060200180831161150857829003601f168201915b505050505081526020016008820160009054906101000a900460ff161515151581525050826001836115579190614662565b815181106115685761156761488f565b5b6020026020010181905250808061157e906147b9565b915050611296565b508091505090565b60008061159a836128cf565b9050600073ffffffffffffffffffffffffffffffffffffffff168173ffffffffffffffffffffffffffffffffffffffff16141561160c576040517f08c379a000000000000000000000000000000000000000000000000000000000815260040161160390614397565b60405180910390fd5b80915050919050565b60008073ffffffffffffffffffffffffffffffffffffffff168273ffffffffffffffffffffffffffffffffffffffff161415611686576040517f08c379a000000000000000000000000000000000000000000000000000000000815260040161167d906142d7565b60405180910390fd5b600360008373ffffffffffffffffffffffffffffffffffffffff1673ffffffffffffffffffffffffffffffffffffffff168152602001908152602001600020549050919050565b6116d5613216565b60075482111561171a576040517f08c379a000000000000000000000000000000000000000000000000000000000815260040161171190614417565b60405180910390fd5b60096000838152602001908152602001600020604051806101200160405290816000820154815260200160018201805461175390614756565b80601f016020809104026020016040519081016040528092919081815260200182805461177f90614756565b80156117cc5780601f106117a1576101008083540402835291602001916117cc565b820191906000526020600020905b8154815290600101906020018083116117af57829003601f168201915b5050505050815260200160028201548152602001600382015481526020016004820154815260200160058201805461180390614756565b80601f016020809104026020016040519081016040528092919081815260200182805461182f90614756565b801561187c5780601f106118515761010080835404028352916020019161187c565b820191906000526020600020905b81548152906001019060200180831161185f57829003601f168201915b5050505050815260200160068201805461189590614756565b80601f01602080910402602001604051908101604052809291908181526020018280546118c190614756565b801561190e5780601f106118e35761010080835404028352916020019161190e565b820191906000526020600020905b8154815290600101906020018083116118f157829003601f168201915b5050505050815260200160078201805461192790614756565b80601f016020809104026020016040519081016040528092919081815260200182805461195390614756565b80156119a05780601f10611975576101008083540402835291602001916119a0565b820191906000526020600020905b81548152906001019060200180831161198357829003601f168201915b505050505081526020016008820160009054906101000a900460ff1615151515815250509050919050565b600660009054906101000a900473ffffffffffffffffffffffffffffffffffffffff1681565b60075481565b606060018054611a0690614756565b80601f0160208091040260200160405190810160405280929190818152602001828054611a3290614756565b8015611a7f5780601f10611a5457610100808354040283529160200191611a7f565b820191906000526020600020905b815481529060010190602001808311611a6257829003601f168201915b5050505050905090565b600660009054906101000a900473ffffffffffffffffffffffffffffffffffffffff1673ffffffffffffffffffffffffffffffffffffffff163373ffffffffffffffffffffffffffffffffffffffff1614611ae357600080fd5b600754811115611b28576040517f08c379a0000000000000000000000000000000000000000000000000000000008152600401611b1f90614417565b60405180910390fd5b6009600082815260200190815260200160002060080160009054906101000a900460ff16156009600083815260200190815260200160002060080160006101000a81548160ff02191690831515021790555050565b600660009054906101000a900473ffffffffffffffffffffffffffffffffffffffff1673ffffffffffffffffffffffffffffffffffffffff163373ffffffffffffffffffffffffffffffffffffffff1614611bd757600080fd5b60076000815480929190611bea906147b9565b9190505550604051806101200160405280600754815260200187815260200186815260200185815260200185815260200184815260200183815260200182815260200160011515815250600960006007548152602001908152602001600020600082015181600001556020820151816001019080519060200190611c6f929190613264565b5060408201518160020155606082015181600301556080820151816004015560a0820151816005019080519060200190611caa929190613264565b5060c0820151816006019080519060200190611cc7929190613264565b5060e0820151816007019080519060200190611ce4929190613264565b506101008201518160080160006101000a81548160ff021916908315150217905550905050505050505050565b600a6020528160005260406000206020528060005260406000206000915091509054906101000a900460ff1681565b611d52611d4b61247f565b838361290c565b5050565b600b6020528160005260406000206020528060005260406000206000915091509054906101000a900473ffffffffffffffffffffffffffffffffffffffff1681565b611da9611da361247f565b83612540565b611de8576040517f08c379a0000000000000000000000000000000000000000000000000000000008152600401611ddf906141d7565b60405180910390fd5b611df484848484612a79565b50505050565b6000831415611e3e576040517f08c379a0000000000000000000000000000000000000000000000000000000008152600401611e3590614377565b60405180910390fd5b600754831115611e83576040517f08c379a0000000000000000000000000000000000000000000000000000000008152600401611e7a90614417565b60405180910390fd5b6009600084815260200190815260200160002060080160009054906101000a900460ff16611ee6576040517f08c379a0000000000000000000000000000000000000000000000000000000008152600401611edd90614257565b60405180910390fd5b6009600084815260200190815260200160002060020154341015611f3f576040517f08c379a0000000000000000000000000000000000000000000000000000000008152600401611f3690614337565b60405180910390fd5b600073ffffffffffffffffffffffffffffffffffffffff16600b6000858152602001908152602001600020600084815260200190815260200160002060009054906101000a900473ffffffffffffffffffffffffffffffffffffffff1673ffffffffffffffffffffffffffffffffffffffff1614611ff2576040517f08c379a0000000000000000000000000000000000000000000000000000000008152600401611fe990614357565b60405180910390fd5b600960008481526020019081526020016000206004015482111561204b576040517f08c379a000000000000000000000000000000000000000000000000000000000815260040161204290614277565b60405180910390fd5b60006009600085815260200190815260200160002060030154116120a4576040517f08c379a000000000000000000000000000000000000000000000000000000000815260040161209b90614457565b60405180910390fd5b6000816040516020016120b7919061407f565b6040516020818303038152906040528051906020012090506005600d600086815260200190815260200160002060008381526020019081526020016000205410612136576040517f08c379a000000000000000000000000000000000000000000000000000000000815260040161212d906142f7565b60405180910390fd5b600d60008581526020019081526020016000206000828152602001908152602001600020600081548092919061216b906147b9565b919050555060016009600086815260200190815260200160002060030160008282546121979190614662565b925050819055506001600a600086815260200190815260200160002060003373ffffffffffffffffffffffffffffffffffffffff1673ffffffffffffffffffffffffffffffffffffffff16815260200190815260200160002060006101000a81548160ff02191690831515021790555033600b6000868152602001908152602001600020600085815260200190815260200160002060006101000a81548173ffffffffffffffffffffffffffffffffffffffff021916908373ffffffffffffffffffffffffffffffffffffffff160217905550600c6000858152602001908152602001600020839080600181540180825580915050600190039060005260206000200160009091909190915055600860008154809291906122b7906147b9565b91905055506122c833600854612ad5565b50505050565b60606122d982612434565b60006122e3612af3565b90506000815111612303576040518060200160405280600081525061232e565b8061230d84612b0a565b60405160200161231e929190614096565b6040516020818303038152906040525b915050919050565b6000600560008473ffffffffffffffffffffffffffffffffffffffff1673ffffffffffffffffffffffffffffffffffffffff16815260200190815260200160002060008373ffffffffffffffffffffffffffffffffffffffff1673ffffffffffffffffffffffffffffffffffffffff16815260200190815260200160002060009054906101000a900460ff16905092915050565b60007f01ffc9a7000000000000000000000000000000000000000000000000000000007bffffffffffffffffffffffffffffffffffffffffffffffffffffffff1916827bffffffffffffffffffffffffffffffffffffffffffffffffffffffff1916149050919050565b61243d81612be2565b61247c576040517f08c379a000000000000000000000000000000000000000000000000000000000815260040161247390614397565b60405180910390fd5b50565b600033905090565b816004600083815260200190815260200160002060006101000a81548173ffffffffffffffffffffffffffffffffffffffff021916908373ffffffffffffffffffffffffffffffffffffffff160217905550808273ffffffffffffffffffffffffffffffffffffffff166124fa8361158e565b73ffffffffffffffffffffffffffffffffffffffff167f8c5be1e5ebec7d5bd14f71427d1e84f3dd0314c0f7b2291e5b200ac8c7c3b92560405160405180910390a45050565b60008061254c8361158e565b90508073ffffffffffffffffffffffffffffffffffffffff168473ffffffffffffffffffffffffffffffffffffffff16148061258e575061258d8185612336565b5b806125cc57508373ffffffffffffffffffffffffffffffffffffffff166125b48461092c565b73ffffffffffffffffffffffffffffffffffffffff16145b91505092915050565b8273ffffffffffffffffffffffffffffffffffffffff166125f58261158e565b73ffffffffffffffffffffffffffffffffffffffff161461264b576040517f08c379a000000000000000000000000000000000000000000000000000000000815260040161264290614217565b60405180910390fd5b600073ffffffffffffffffffffffffffffffffffffffff168273ffffffffffffffffffffffffffffffffffffffff1614156126bb576040517f08c379a00000000000000000000000000000000000000000000000000000000081526004016126b290614297565b60405180910390fd5b6126c88383836001612c23565b8273ffffffffffffffffffffffffffffffffffffffff166126e88261158e565b73ffffffffffffffffffffffffffffffffffffffff161461273e576040517f08c379a000000000000000000000000000000000000000000000000000000000815260040161273590614217565b60405180910390fd5b6004600082815260200190815260200160002060006101000a81549073ffffffffffffffffffffffffffffffffffffffff02191690556001600360008573ffffffffffffffffffffffffffffffffffffffff1673ffffffffffffffffffffffffffffffffffffffff168152602001908152602001600020600082825403925050819055506001600360008473ffffffffffffffffffffffffffffffffffffffff1673ffffffffffffffffffffffffffffffffffffffff16815260200190815260200160002060008282540192505081905550816002600083815260200190815260200160002060006101000a81548173ffffffffffffffffffffffffffffffffffffffff021916908373ffffffffffffffffffffffffffffffffffffffff160217905550808273ffffffffffffffffffffffffffffffffffffffff168473ffffffffffffffffffffffffffffffffffffffff167fddf252ad1be2c89b69c2b068fc378daa952ba7f163c4a11628f55a4df523b3ef60405160405180910390a46128ca8383836001612c29565b505050565b60006002600083815260200190815260200160002060009054906101000a900473ffffffffffffffffffffffffffffffffffffffff169050919050565b8173ffffffffffffffffffffffffffffffffffffffff168373ffffffffffffffffffffffffffffffffffffffff16141561297b576040517f08c379a0000000000000000000000000000000000000000000000000000000008152600401612972906142b7565b60405180910390fd5b80600560008573ffffffffffffffffffffffffffffffffffffffff1673ffffffffffffffffffffffffffffffffffffffff16815260200190815260200160002060008473ffffffffffffffffffffffffffffffffffffffff1673ffffffffffffffffffffffffffffffffffffffff16815260200190815260200160002060006101000a81548160ff0219169083151502179055508173ffffffffffffffffffffffffffffffffffffffff168373ffffffffffffffffffffffffffffffffffffffff167f17307eab39ab6107e8899845ad3d59bd9653f200f220920489ca2b5937696c3183604051612a6c919061417a565b60405180910390a3505050565b612a848484846125d5565b612a9084848484612c2f565b612acf576040517f08c379a0000000000000000000000000000000000000000000000000000000008152600401612ac6906141f7565b60405180910390fd5b50505050565b612aef828260405180602001604052806000815250612dc6565b5050565b606060405180602001604052806000815250905090565b606060006001612b1984612e21565b01905060008167ffffffffffffffff811115612b3857612b376148be565b5b6040519080825280601f01601f191660200182016040528015612b6a5781602001600182028036833780820191505090505b509050600082602001820190505b600115612bd7578080600190039150507f3031323334353637383961626364656600000000000000000000000000000000600a86061a8153600a8581612bc157612bc0614831565b5b0494506000851415612bd257612bd7565b612b78565b819350505050919050565b60008073ffffffffffffffffffffffffffffffffffffffff16612c04836128cf565b73ffffffffffffffffffffffffffffffffffffffff1614159050919050565b50505050565b50505050565b6000612c508473ffffffffffffffffffffffffffffffffffffffff16612f74565b15612db9578373ffffffffffffffffffffffffffffffffffffffff1663150b7a02612c7961247f565b8786866040518563ffffffff1660e01b8152600401612c9b94939291906140ea565b602060405180830381600087803b158015612cb557600080fd5b505af1925050508015612ce657506040513d601f19601f82011682018060405250810190612ce39190613655565b60015b612d69573d8060008114612d16576040519150601f19603f3d011682016040523d82523d6000602084013e612d1b565b606091505b50600081511415612d61576040517f08c379a0000000000000000000000000000000000000000000000000000000008152600401612d58906141f7565b60405180910390fd5b805181602001fd5b63150b7a0260e01b7bffffffffffffffffffffffffffffffffffffffffffffffffffffffff1916817bffffffffffffffffffffffffffffffffffffffffffffffffffffffff191614915050612dbe565b600190505b949350505050565b612dd08383612f97565b612ddd6000848484612c2f565b612e1c576040517f08c379a0000000000000000000000000000000000000000000000000000000008152600401612e13906141f7565b60405180910390fd5b505050565b600080600090507a184f03e93ff9f4daa797ed6e38ed64bf6a1f0100000000000000008310612e7f577a184f03e93ff9f4daa797ed6e38ed64bf6a1f0100000000000000008381612e7557612e74614831565b5b0492506040810190505b6d04ee2d6d415b85acef81000000008310612ebc576d04ee2d6d415b85acef81000000008381612eb257612eb1614831565b5b0492506020810190505b662386f26fc100008310612eeb57662386f26fc100008381612ee157612ee0614831565b5b0492506010810190505b6305f5e1008310612f14576305f5e1008381612f0a57612f09614831565b5b0492506008810190505b6127108310612f39576127108381612f2f57612f2e614831565b5b0492506004810190505b60648310612f5c5760648381612f5257612f51614831565b5b0492506002810190505b600a8310612f6b576001810190505b80915050919050565b6000808273ffffffffffffffffffffffffffffffffffffffff163b119050919050565b600073ffffffffffffffffffffffffffffffffffffffff168273ffffffffffffffffffffffffffffffffffffffff161415613007576040517f08c379a0000000000000000000000000000000000000000000000000000000008152600401612ffe90614317565b60405180910390fd5b61301081612be2565b15613050576040517f08c379a000000000000000000000000000000000000000000000000000000000815260040161304790614237565b60405180910390fd5b61305e600083836001612c23565b61306781612be2565b156130a7576040517f08c379a000000000000000000000000000000000000000000000000000000000815260040161309e90614237565b60405180910390fd5b6001600360008473ffffffffffffffffffffffffffffffffffffffff1673ffffffffffffffffffffffffffffffffffffffff16815260200190815260200160002060008282540192505081905550816002600083815260200190815260200160002060006101000a81548173ffffffffffffffffffffffffffffffffffffffff021916908373ffffffffffffffffffffffffffffffffffffffff160217905550808273ffffffffffffffffffffffffffffffffffffffff16600073ffffffffffffffffffffffffffffffffffffffff167fddf252ad1be2c89b69c2b068fc378daa952ba7f163c4a11628f55a4df523b3ef60405160405180910390a46131b1600083836001612c29565b5050565b5080546131c190614756565b6000825580601f106131d357506131f2565b601f0160209004906000526020600020908101906131f191906132ea565b5b50565b508054600082559060005260206000209081019061321391906132ea565b50565b60405180610120016040528060008152602001606081526020016000815260200160008152602001600081526020016060815260200160608152602001606081526020016000151581525090565b82805461327090614756565b90600052602060002090601f01602090048101928261329257600085556132d9565b82601f106132ab57805160ff19168380011785556132d9565b828001600101855582156132d9579182015b828111156132d85782518255916020019190600101906132bd565b5b5090506132e691906132ea565b5090565b5b808211156133035760008160009055506001016132eb565b5090565b600061331a613315846144d9565b6144b4565b905082815260208101848484011115613336576133356148f2565b5b613341848285614714565b509392505050565b600061335c6133578461450a565b6144b4565b905082815260208101848484011115613378576133776148f2565b5b613383848285614714565b509392505050565b60008135905061339a81614dcb565b92915050565b6000813590506133af81614de2565b92915050565b6000813590506133c481614df9565b92915050565b6000813590506133d981614e10565b92915050565b6000815190506133ee81614e10565b92915050565b600082601f830112613409576134086148ed565b5b8135613419848260208601613307565b91505092915050565b600082601f830112613437576134366148ed565b5b8135613447848260208601613349565b91505092915050565b60008135905061345f81614e27565b92915050565b60006020828403121561347b5761347a6148fc565b5b60006134898482850161338b565b91505092915050565b600080604083850312156134a9576134a86148fc565b5b60006134b78582860161338b565b92505060206134c88582860161338b565b9150509250929050565b6000806000606084860312156134eb576134ea6148fc565b5b60006134f98682870161338b565b935050602061350a8682870161338b565b925050604061351b86828701613450565b9150509250925092565b6000806000806080858703121561353f5761353e6148fc565b5b600061354d8782880161338b565b945050602061355e8782880161338b565b935050604061356f87828801613450565b925050606085013567ffffffffffffffff8111156135905761358f6148f7565b5b61359c878288016133f4565b91505092959194509250565b600080604083850312156135bf576135be6148fc565b5b60006135cd8582860161338b565b92505060206135de858286016133a0565b9150509250929050565b600080604083850312156135ff576135fe6148fc565b5b600061360d8582860161338b565b925050602061361e85828601613450565b9150509250929050565b60006020828403121561363e5761363d6148fc565b5b600061364c848285016133ca565b91505092915050565b60006020828403121561366b5761366a6148fc565b5b6000613679848285016133df565b91505092915050565b600060208284031215613698576136976148fc565b5b600082013567ffffffffffffffff8111156136b6576136b56148f7565b5b6136c284828501613422565b91505092915050565b60008060008060008060c087890312156136e8576136e76148fc565b5b600087013567ffffffffffffffff811115613706576137056148f7565b5b61371289828a01613422565b965050602061372389828a01613450565b955050604061373489828a01613450565b945050606087013567ffffffffffffffff811115613755576137546148f7565b5b61376189828a01613422565b935050608087013567ffffffffffffffff811115613782576137816148f7565b5b61378e89828a01613422565b92505060a087013567ffffffffffffffff8111156137af576137ae6148f7565b5b6137bb89828a01613422565b9150509295509295509295565b6000602082840312156137de576137dd6148fc565b5b60006137ec84828501613450565b91505092915050565b6000806040838503121561380c5761380b6148fc565b5b600061381a85828601613450565b925050602061382b8582860161338b565b9150509250929050565b6000806040838503121561384c5761384b6148fc565b5b600061385a85828601613450565b925050602061386b858286016133b5565b9150509250929050565b6000806040838503121561388c5761388b6148fc565b5b600061389a85828601613450565b925050602083013567ffffffffffffffff8111156138bb576138ba6148f7565b5b6138c785828601613422565b9150509250929050565b600080604083850312156138e8576138e76148fc565b5b60006138f685828601613450565b925050602061390785828601613450565b9150509250929050565b60008060006060848603121561392a576139296148fc565b5b600061393886828701613450565b935050602061394986828701613450565b925050604084013567ffffffffffffffff81111561396a576139696148f7565b5b61397686828701613422565b9150509250925092565b600061398c8383613ead565b905092915050565b60006139a08383614061565b60208301905092915050565b6139b581614696565b82525050565b60006139c68261455b565b6139d081856145a1565b9350836020820285016139e28561453b565b8060005b85811015613a1e57848403895281516139ff8582613980565b9450613a0a83614587565b925060208a019950506001810190506139e6565b50829750879550505050505092915050565b6000613a3b82614566565b613a4581856145b2565b9350613a508361454b565b8060005b83811015613a81578151613a688882613994565b9750613a7383614594565b925050600181019050613a54565b5085935050505092915050565b613a97816146a8565b82525050565b613aa6816146a8565b82525050565b6000613ab782614571565b613ac181856145c3565b9350613ad1818560208601614723565b613ada81614901565b840191505092915050565b6000613af08261457c565b613afa81856145df565b9350613b0a818560208601614723565b613b1381614901565b840191505092915050565b6000613b298261457c565b613b3381856145f0565b9350613b43818560208601614723565b613b4c81614901565b840191505092915050565b6000613b628261457c565b613b6c8185614601565b9350613b7c818560208601614723565b80840191505092915050565b6000613b956013836145f0565b9150613ba082614912565b602082019050919050565b6000613bb8602d836145f0565b9150613bc38261493b565b604082019050919050565b6000613bdb6032836145f0565b9150613be68261498a565b604082019050919050565b6000613bfe6025836145f0565b9150613c09826149d9565b604082019050919050565b6000613c21601c836145f0565b9150613c2c82614a28565b602082019050919050565b6000613c446016836145f0565b9150613c4f82614a51565b602082019050919050565b6000613c676013836145f0565b9150613c7282614a7a565b602082019050919050565b6000613c8a6024836145f0565b9150613c9582614aa3565b604082019050919050565b6000613cad6019836145f0565b9150613cb882614af2565b602082019050919050565b6000613cd06029836145f0565b9150613cdb82614b1b565b604082019050919050565b6000613cf36023836145f0565b9150613cfe82614b6a565b604082019050919050565b6000613d166020836145f0565b9150613d2182614bb9565b602082019050919050565b6000613d396014836145f0565b9150613d4482614be2565b602082019050919050565b6000613d5c6012836145f0565b9150613d6782614c0b565b602082019050919050565b6000613d7f6013836145f0565b9150613d8a82614c34565b602082019050919050565b6000613da26018836145f0565b9150613dad82614c5d565b602082019050919050565b6000613dc56021836145f0565b9150613dd082614c86565b604082019050919050565b6000613de86016836145f0565b9150613df382614cd5565b602082019050919050565b6000613e0b6000836145d4565b9150613e1682614cfe565b600082019050919050565b6000613e2e603d836145f0565b9150613e3982614d01565b604082019050919050565b6000613e516017836145f0565b9150613e5c82614d50565b602082019050919050565b6000613e746011836145f0565b9150613e7f82614d79565b602082019050919050565b6000613e976014836145f0565b9150613ea282614da2565b602082019050919050565b600061012083016000830151613ec66000860182614061565b5060208301518482036020860152613ede8282613ae5565b9150506040830151613ef36040860182614061565b506060830151613f066060860182614061565b506080830151613f196080860182614061565b5060a083015184820360a0860152613f318282613ae5565b91505060c083015184820360c0860152613f4b8282613ae5565b91505060e083015184820360e0860152613f658282613ae5565b915050610100830151613f7c610100860182613a8e565b508091505092915050565b600061012083016000830151613fa06000860182614061565b5060208301518482036020860152613fb88282613ae5565b9150506040830151613fcd6040860182614061565b506060830151613fe06060860182614061565b506080830151613ff36080860182614061565b5060a083015184820360a086015261400b8282613ae5565b91505060c083015184820360c08601526140258282613ae5565b91505060e083015184820360e086015261403f8282613ae5565b915050610100830151614056610100860182613a8e565b508091505092915050565b61406a8161470a565b82525050565b6140798161470a565b82525050565b600061408b8284613b57565b915081905092915050565b60006140a28285613b57565b91506140ae8284613b57565b91508190509392505050565b60006140c582613dfe565b9150819050919050565b60006020820190506140e460008301846139ac565b92915050565b60006080820190506140ff60008301876139ac565b61410c60208301866139ac565b6141196040830185614070565b818103606083015261412b8184613aac565b905095945050505050565b6000602082019050818103600083015261415081846139bb565b905092915050565b600060208201905081810360008301526141728184613a30565b905092915050565b600060208201905061418f6000830184613a9d565b92915050565b600060208201905081810360008301526141af8184613b1e565b905092915050565b600060208201905081810360008301526141d081613b88565b9050919050565b600060208201905081810360008301526141f081613bab565b9050919050565b6000602082019050818103600083015261421081613bce565b9050919050565b6000602082019050818103600083015261423081613bf1565b9050919050565b6000602082019050818103600083015261425081613c14565b9050919050565b6000602082019050818103600083015261427081613c37565b9050919050565b6000602082019050818103600083015261429081613c5a565b9050919050565b600060208201905081810360008301526142b081613c7d565b9050919050565b600060208201905081810360008301526142d081613ca0565b9050919050565b600060208201905081810360008301526142f081613cc3565b9050919050565b6000602082019050818103600083015261431081613ce6565b9050919050565b6000602082019050818103600083015261433081613d09565b9050919050565b6000602082019050818103600083015261435081613d2c565b9050919050565b6000602082019050818103600083015261437081613d4f565b9050919050565b6000602082019050818103600083015261439081613d72565b9050919050565b600060208201905081810360008301526143b081613d95565b9050919050565b600060208201905081810360008301526143d081613db8565b9050919050565b600060208201905081810360008301526143f081613ddb565b9050919050565b6000602082019050818103600083015261441081613e21565b9050919050565b6000602082019050818103600083015261443081613e44565b9050919050565b6000602082019050818103600083015261445081613e67565b9050919050565b6000602082019050818103600083015261447081613e8a565b9050919050565b600060208201905081810360008301526144918184613f87565b905092915050565b60006020820190506144ae6000830184614070565b92915050565b60006144be6144cf565b90506144ca8282614788565b919050565b6000604051905090565b600067ffffffffffffffff8211156144f4576144f36148be565b5b6144fd82614901565b9050602081019050919050565b600067ffffffffffffffff821115614525576145246148be565b5b61452e82614901565b9050602081019050919050565b6000819050602082019050919050565b6000819050602082019050919050565b600081519050919050565b600081519050919050565b600081519050919050565b600081519050919050565b6000602082019050919050565b6000602082019050919050565b600082825260208201905092915050565b600082825260208201905092915050565b600082825260208201905092915050565b600081905092915050565b600082825260208201905092915050565b600082825260208201905092915050565b600081905092915050565b60006146178261470a565b91506146228361470a565b9250827fffffffffffffffffffffffffffffffffffffffffffffffffffffffffffffffff0382111561465757614656614802565b5b828201905092915050565b600061466d8261470a565b91506146788361470a565b92508282101561468b5761468a614802565b5b828203905092915050565b60006146a1826146ea565b9050919050565b60008115159050919050565b6000819050919050565b60007fffffffff0000000000000000000000000000000000000000000000000000000082169050919050565b600073ffffffffffffffffffffffffffffffffffffffff82169050919050565b6000819050919050565b82818337600083830152505050565b60005b83811015614741578082015181840152602081019050614726565b83811115614750576000848401525b50505050565b6000600282049050600182168061476e57607f821691505b6020821081141561478257614781614860565b5b50919050565b61479182614901565b810181811067ffffffffffffffff821117156147b0576147af6148be565b5b80604052505050565b60006147c48261470a565b91507fffffffffffffffffffffffffffffffffffffffffffffffffffffffffffffffff8214156147f7576147f6614802565b5b600182019050919050565b7f4e487b7100000000000000000000000000000000000000000000000000000000600052601160045260246000fd5b7f4e487b7100000000000000000000000000000000000000000000000000000000600052601260045260246000fd5b7f4e487b7100000000000000000000000000000000000000000000000000000000600052602260045260246000fd5b7f4e487b7100000000000000000000000000000000000000000000000000000000600052603260045260246000fd5b7f4e487b7100000000000000000000000000000000000000000000000000000000600052604160045260246000fd5b600080fd5b600080fd5b600080fd5b600080fd5b6000601f19601f8301169050919050565b7f496e76616c6964206461746520666f726d617400000000000000000000000000600082015250565b7f4552433732313a2063616c6c6572206973206e6f7420746f6b656e206f776e6560008201527f72206f7220617070726f76656400000000000000000000000000000000000000602082015250565b7f4552433732313a207472616e7366657220746f206e6f6e20455243373231526560008201527f63656976657220696d706c656d656e7465720000000000000000000000000000602082015250565b7f4552433732313a207472616e736665722066726f6d20696e636f72726563742060008201527f6f776e6572000000000000000000000000000000000000000000000000000000602082015250565b7f4552433732313a20746f6b656e20616c7265616479206d696e74656400000000600082015250565b7f4f63636173696f6e206973206e6f742061637469766500000000000000000000600082015250565b7f496e76616c69642073656174206e756d62657200000000000000000000000000600082015250565b7f4552433732313a207472616e7366657220746f20746865207a65726f2061646460008201527f7265737300000000000000000000000000000000000000000000000000000000602082015250565b7f4552433732313a20617070726f766520746f2063616c6c657200000000000000600082015250565b7f4552433732313a2061646472657373207a65726f206973206e6f74206120766160008201527f6c6964206f776e65720000000000000000000000000000000000000000000000602082015250565b7f4950206861732072656163686564206d6178696d756d207469636b6574206c6960008201527f6d69740000000000000000000000000000000000000000000000000000000000602082015250565b7f4552433732313a206d696e7420746f20746865207a65726f2061646472657373600082015250565b7f496e73756666696369656e74207061796d656e74000000000000000000000000600082015250565b7f5365617420616c72656164792074616b656e0000000000000000000000000000600082015250565b7f496e76616c6964206f63636173696f6e20494400000000000000000000000000600082015250565b7f4552433732313a20696e76616c696420746f6b656e2049440000000000000000600082015250565b7f4552433732313a20617070726f76616c20746f2063757272656e74206f776e6560008201527f7200000000000000000000000000000000000000000000000000000000000000602082015250565b7f4576656e74206861736e277420656e6465642079657400000000000000000000600082015250565b50565b7f4552433732313a20617070726f76652063616c6c6572206973206e6f7420746f60008201527f6b656e206f776e6572206f7220617070726f76656420666f7220616c6c000000602082015250565b7f4f63636173696f6e20646f6573206e6f74206578697374000000000000000000600082015250565b7f5769746864726177616c206661696c6564000000000000000000000000000000600082015250565b7f4e6f207469636b65747320617661696c61626c65000000000000000000000000600082015250565b614dd481614696565b8114614ddf57600080fd5b50565b614deb816146a8565b8114614df657600080fd5b50565b614e02816146b4565b8114614e0d57600080fd5b50565b614e19816146be565b8114614e2457600080fd5b50565b614e308161470a565b8114614e3b57600080fd5b5056fea2646970667358221220d612776255d634e41e3ee34339f0f7388f1d22241b0bf6cec8bef299cb0a12e864736f6c63430008070033",
    "linkReferences": {},
    "deployedLinkReferences": {}
}